:100000000C9434000C9451000C9451000C94510049
:100010000C9451000C9451000C9451000C9451001C
:100020000C9451000C9476040C9451000C945100E3
:100030000C9451000C941F050C9451000C94510029
:100040000C9451000C9451000C94A5050C94510093
:100050000C9451000C9451000C9451000C945100DC
:100060000C9451000C94510011241FBECFEFD8E026
:10007000DEBFCDBF11E0A0E0B1E0E8EDF9E102C0E4
:1000800005900D92A031B107D9F711E0A0E1B1E0E0
:1000900001C01D92AD39B107E1F70E94410B0C94EC
:1000A000EA0C0C9400000F93CF93DF93DC018D9149
:1000B0009C91119768177907D8F4FB01EE0FFF1F89
:1000C000E60FF71F1296CD91DC911397CE0FDF1F2D
:1000D00048831296CD91DC911397CE0FDF1F2983B1
:1000E00012960D90BC91A02DAE0FBF1F12960C93CF
:1000F000DF91CF910F9108958038910538F08F3FAF
:10010000910509F010F4809501C080E06AE00E943A
:100110005C0B08952F923F924F925F926F927F9265
:100120008F929F92AF92BF92CF92DF92EF92FF9207
:100130000F931F93CF93DF9300D000D0CDB7DEB7DE
:100140008C01CB01FA01D8012D903C9060E871E060
:100150000E94680B2C013196E29D9001E39D300DC9
:10016000F29D300D11241C821B82812C912CA12C1C
:10017000B12C90E8E92EFF24F39448C0C401B901E2
:100180000E94680BCB01840D951DB7010E94680B7E
:100190006C01F801628073808B819C81680E791EEE
:1001A000C60129833A830E947C00D3018C93F80115
:1001B000628073808B819C81680E791EC601805895
:1001C0009F4FB7010E94680B0E947C00D3011196DB
:1001D0008C93F801628073808B819C81680E791EFC
:1001E000C6019395B7010E94680B0E947C00D30161
:1001F00012968C93BFEFAB1ABB0AE1EF9E1A8B816C
:100200009C8103969C838B833A812981A214B30439
:1002100009F0B4CF0F900F900F900F90DF91CF9116
:100220001F910F91FF90EF90DF90CF90BF90AF9014
:100230009F908F907F906F905F904F903F902F9006
:100240000895AF92BF92CF92DF92EF92FF920F93F9
:100250001F93CF93DF93FC016B015A01E12CF12C2A
:10026000C0E0D0E015C0A281B381AE0DBF1D0C93DC
:10027000A281B381AE0DBF1D11961C93A281B381E3
:10028000AE0DBF1D12962C93219683E0E80EF11C53
:10029000A081B1811196CA9EC001CB9E900DDA9EBD
:1002A000900D1124B5010E94680BC617D707D8F22C
:1002B000CE01880F991F8C0F9D1F13C0A281B3819F
:1002C000A80FB91F1C92A281B381A80FB91F119664
:1002D0001C92A281B381A80FB91F12961C9221967D
:1002E000039620813181C217D30740F3DF91CF916C
:1002F0001F910F91FF90EF90DF90CF90BF90AF9044
:100300000895EF92FF920F931F93CF93DF93CDB792
:10031000DEB728970FB6F894DEBF0FBECDBF7B01C6
:10032000FC018281938198878F832CE030E03E83AB
:100330002D8384969C838B8388E090E09A838983C5
:1003400042E350E0CE0105960E948A00EF81F885D5
:100350000081118122814CE251E0B701CE0101966A
:100360000E94210128960FB6F894DEBF0FBECDBFC4
:10037000DF91CF911F910F91FF90EF900895AF9271
:10038000BF92CF92DF92EF92FF920F931F93CF9382
:10039000DF93FC014617570720F06A01C61AD70AF7
:1003A00002C0C12CD12CE12CF12CC0E0D0E05A01CC
:1003B0008FEFA81AB80A15C0A281B381AE0DBF1D78
:1003C0000C93A281B381AE0DBF1D11961C93A28127
:1003D000B381AE0DBF1D12962C93219683E0E80EDB
:1003E000F11CA081B1811196CA9EC001CB9E900DD7
:1003F000DA9E900D1124B5010E94680BC617D7072D
:10040000D8F2CE01880F991F8C0F9D1F13C0A281B7
:10041000B381A80FB91F1C92A281B381A80FB91F85
:1004200011961C92A281B381A80FB91F12961C923B
:100430002196039620813181C217D30740F3DF91C3
:10044000CF911F910F91FF90EF90DF90CF90BF90D1
:10045000AF900895CF93DF93DC01E0E0F0E01296D7
:10046000CD91DC911397CE0FDF1F68831296CD914B
:10047000DC911397CE0FDF1F49831296CD91DC914B
:100480001397CE0FDF1F2A833396EC30F10539F72F
:10049000DF91CF910895CF93DF93DC01ECE0F0E0A2
:1004A0001296CD91DC911397CE0FDF1F68831296C1
:1004B000CD91DC911397CE0FDF1F49831296CD911A
:1004C000DC911397CE0FDF1F2A833396E831F105B5
:1004D00039F7DF91CF910895CF93DF93DC01E8E105
:1004E000F0E01296CD91DC911397CE0FDF1F688359
:1004F0001296CD91DC911397CE0FDF1F4983129690
:10050000CD91DC911397CE0FDF1F2A833396E4320F
:10051000F10539F7DF91CF910895CF93DF93DC0197
:10052000E4E2F0E01296CD91DC911397CE0FDF1F3D
:1005300068831296CD91DC911397CE0FDF1F49830C
:100540001296CD91DC911397CE0FDF1F2A8333963D
:10055000EC33F10539F7DF91CF910895E0918B01EC
:10056000F0918C0185813AE0632F0E945C0B282F6B
:1005700084810E945C0B482F83810E945C0B682F52
:1005800089E891E00E948D028091970190919801F5
:10059000909396018093950110928E0110928D0197
:1005A0000895CF93DF93DC01E0E0F0E01296CD9167
:1005B000DC911397CE0FDF1F68831296CD91DC91EB
:1005C0001397CE0FDF1F49831296CD91DC911397BD
:1005D000CE0FDF1F2A833396E432F10539F7DF911E
:1005E000CF910895CF93DF9320919501309196019B
:1005F00030939801209397011092960110929501E3
:100600009093880180938701CBE8D1E0E881F9815C
:100610008281880F282F220F220F280F8181880FB7
:10062000482F440F440F480F8081880F682F660FB2
:10063000660F680F89E891E00E948D02E881F981D8
:100640008281880F282F220F220F280F8181880F87
:10065000482F440F440F480F8081880F682F660F82
:10066000660F680F89E891E00E94D10281E090E076
:1006700090938E0180938D01DF91CF910895FC01BD
:1006800082819381FB01938382838CE090E091834C
:1006900080830895FC01828193818496FB0193837A
:1006A000828388E090E091838083089584B188629A
:1006B00084B9249881E58CBD08958EBD0DB407FEE4
:1006C000FDCF089580E00E945D0380E00E945D03FD
:1006D00080E00C945D03CF93DF93EC018981806807
:1006E0000E945D03888180680E945D038A81806822
:1006F000DF91CF910C945D03EF92FF920F931F93C4
:10070000CF93DF937C0100E010E0C0E0D0E00AC0AE
:10071000F70182819381800F911F0E946B032196C4
:100720000D5F1F4FF70180819181C817D90784F3AE
:10073000DF91CF911F910F91FF90EF900C94620386
:100740000F931F93809195019091960120919301B1
:10075000309194012817390709F459C08091950107
:1007600090919601909394018093930180919501CB
:10077000909196018F709927892BB1F420E030E099
:1007800040E85FE3609110017091110180911201C6
:10079000909113010E94CD08609310017093110194
:1007A000809312019093130180918D0190918E019D
:1007B000009719F0019729F511C06091100170910F
:1007C000110180911201909113010E9444074AE2A5
:1007D00050E083E891E00E948A0013C06091950187
:1007E00070919601E0918501F0918601008111815F
:1007F000228140918701509188018FE891E00E9409
:10080000BF0189E891E01F910F910C947C031F9127
:100810000F9108950F93CF93DF9310929801109248
:1008200097010E9456038091700081608093700050
:100830008091B10087608093B10010929601109270
:10084000950181E090E090939401809393018CE373
:1008500090E00E94B30B90938C0180938B010097E2
:1008600059F589E891E00E947C0389E891E00E94B3
:100870007C0380918B0190918C01909386018093F1
:1008800085012CE030E0309384012093830184962D
:10089000909392018093910188E090E09093900171
:1008A00080938F0124E144E164E189E891E0DF91E4
:1008B000CF910F910C948D0284E190E090938A0186
:1008C00080938901C0E0D0E009C000E020E040E072
:1008D000BE0189E891E00E94530021968091890130
:1008E00090918A01C817D90784F3BBCF1F920F924A
:1008F0000FB60F9211248F939F9381EB8093B200D8
:100900008091950190919601019690939601809324
:1009100095019F918F910F900FBE0F901F9018958A
:1009200084B5816084BD84B58D7F84BD85B5877FA6
:1009300085BD85B58E7F85BD85B5826085BD85B554
:100940008B7F85BD17BC18BC84B58F7384BD84B5FF
:100950008F7C84BD1092180108958AB180638AB992
:1009600084B58F7E84BD84B5806284BDEFE6F0E0FF
:1009700080818160808308958AB1806C8AB984B552
:100980008F7B84BD84B5806884BD08958F3F9105B9
:100990003CF482302FEF92073CF097FF03C006C073
:1009A0008EEF90E05C9A06C082E09FEF5C98919594
:1009B0008195910988BD08958F3F91053CF482305F
:1009C0002FEF92073CF097FF03C006C08EEF90E038
:1009D0005F9A06C082E09FEF5F989195819591099B
:1009E00087BD0895809590959093850080938400AD
:1009F000E1E8F0E080818560808308959C01232FE9
:100A0000332722952F70309315012093140154E061
:100A1000880F991F5A95E1F790931701809316015B
:100A200080911601909117010C94F204B09BFECFB7
:100A3000809181008A7F80938100B09A08951F92EF
:100A40000F920FB60F9211242F933F934F935F9302
:100A50006F937F938F939F93AF93BF93EF93FF9386
:100A60008091140190911501892BF9F4809118015E
:100A7000813079F480918100887F8093810080E0CB
:100A800090E00E94C6042A9A0E94AE0210921801B9
:100A900015C088E39FEF0E94C60480E092E10E94A7
:100AA000F20481E08093180109C0809114019091B3
:100AB000150101979093150180931401FF91EF9117
:100AC000BF91AF919F918F917F916F915F914F9166
:100AD0003F912F910F900FBE0F901F901895E4E655
:100AE000F0E080811082E1ECF0E080818861808319
:100AF0008081806880831092C50088E08093C40064
:100B0000A0ECB0E08C9182608C9380818B7F80839D
:100B1000E2ECF0E08081866080838AE191E00C94D1
:100B2000F80680935D0108958091190108959091D0
:100B3000C00095FFFCCF8093C60008958091C0004F
:100B400087FFFCCF8091C60008951F920F920FB6C9
:100B50000F9211242F933F934F935F936F937F9343
:100B60008F939F93AF93BF93EF93FF936091C600D2
:100B700067FF36C066FF1FC080917101882399F01E
:100B800080915E0190915F01FC01E05AFE4F60830D
:100B9000019690935F0180935E011092710181E054
:100BA0008093190133C08AE191E00E94050781E03A
:100BB000809300012BC0862F8F7390915D01891760
:100BC00011F081110AC01092190181E08093710126
:100BD0006093600181E090E010C01092000112C0AB
:100BE00080917101882371F080915E0190915F0185
:100BF000FC01E05AFE4F6083019690935F01809361
:100C00005E0104C08AE191E00E940507FF91EF9127
:100C1000BF91AF919F918F917F916F915F914F9114
:100C20003F912F910F900FBE0F901F90189510922B
:100C3000700190917201E92FF0E0ED58FE4F808332
:100C40009F5F90937201089581E0809370010895F1
:100C5000CF93DF93809170018823A9F0C3E7D1E09F
:100C600005C069918AE191E00E9405079E01235722
:100C700031408091720190E02817390794F3109267
:100C8000720110927001DF91CF910895CF93DF939D
:100C90001F92CDB7DEB78091000181110E94280616
:100CA00080915C01882389F08091C00085FF0DC090
:100CB0001982BE016F5F7F4F8AE191E00E94230796
:100CC000813019F089818093C6000F90DF91CF9118
:100CD0000895CF93C82F8FEB0E9417068C2F0E9488
:100CE000170680915D010E9417068FEC0E9417067F
:100CF00081E080937001CF9108951F93CF93DF938C
:100D00001F92CDB7DEB7182F8FEB69830E941706AD
:100D1000812F0E9417066981862F0E9417068091F5
:100D20005D010E9417068FEC0E94170681E08093F8
:100D300070010F90DF91CF911F910895CF93DF93B2
:100D400080911901811101C04DC01092190180914B
:100D50005E0190915F01833091050CF445C02091B4
:100D60006101223019F12034E1F50597E9F5609130
:100D70006301809162010E947D062A98C091620100
:100D800080E8C89FE001112480916301C82B80EAAC
:100D900090E00E94C604CE010E94FE04CE0196950A
:100DA0008795969587950E94F2021CC00497E1F4FE
:100DB0002998C0916201C0935D01809160018038E3
:100DC00089F40E94170682E00E9417068C2F8F5F1D
:100DD0000E9417068FEC0E94170681E08093700135
:100DE00001C0289880E001C081E0DF91CF91089593
:100DF000FC01E05CFF4F1082FC01EF5BFF4F1082B3
:100E0000FC01EE5BFF4F10820895CF93DF93FC014E
:100E1000EE5BFF4F40814F3390F4DC01AF5BBF4F7F
:100E20002C9130E0EC01C20FD31F6883C9010196F9
:100E30008F7399278C934F5F408380E001C081E0DE
:100E4000DF91CF910895CF93DF93FC01EE5BFF4FCD
:100E500020812223A9F0DC01A05CBF4F2C91EC0182
:100E6000C20FD11D8881EB0188838C9190E001969F
:100E70008F7399278C9380818150808380E001C09B
:100E800081E0DF91CF910895CF92DF92EF92FF92B0
:100E90000F931F936B017C0120E030E040E05FE4A2
:100EA0000E94290987FD0EC020E030E040E05FE4A9
:100EB000C701B6010E94F9080E9458098B019C01E4
:100EC000305806C0C701B6010E9458098B019C0129
:100ED000B801C9011F910F91FF90EF90DF90CF9063
:100EE0000895A4E0B0E0E7E7F7E00C947E0B7C0106
:100EF0006A01FC018081823008F44AC1FB019081C3
:100F0000923008F442C1843079F4943009F040C141
:100F1000F7019181FB018181981709F439C1A7E09C
:100F2000EA2EA1E0FA2E34C1943009F42EC1923099
:100F300091F4823009F02CC188E0F701DA010190C8
:100F40000D928A95E1F7FB018181F7019181892357
:100F5000FA0181831CC1823009F417C1F701828133
:100F60009381FB01A281B381F70104811581268160
:100F70003781FB0184809580A680B780FC01EA1B45
:100F8000FB0BAF01F7FF04C0442755274E1B5F0B37
:100F9000403251050CF074C01E161F06B4F5240132
:100FA0003501042E04C076946794579447940A94AC
:100FB000D2F749825A826B827C82412C512C3201B9
:100FC000439404C0440C551C661C771C4A95D2F708
:100FD00041E0441A510861087108482059206A20EC
:100FE0007B20812C912C5401839445284628472846
:100FF00019F4812C912C540149805A806B807C809B
:1010000084289528A628B72846C0EF2B09F443C0AA
:10101000840F951F28013901042E04C0769467942B
:10102000579447940A94D2F749825A826B827C8201
:10103000412C512C3201439404C0440C551C661CB5
:10104000771C4A95D2F741E0441A510861087108AB
:10105000402251226222732201E010E020E030E0C1
:1010600045284628472819F400E010E098014980F7
:101070005A806B807C8004291529262937290BC0CA
:10108000A817B90724F4812C912C540104C0CD0178
:1010900000E010E09801F7014181FB015181451703
:1010A00009F446C0442349F024013501401A510A8D
:1010B000620A730A9301820104C0081919092A09F6
:1010C0003B0937FD05C0F6011182938382830CC072
:1010D00041E0F601418393838283309520951095FA
:1010E00001951F4F2F4F3F4F04831583268337836E
:1010F0000EC0880F991FAA1FBB1FF601848395831A
:10110000A683B78382819381019793838283F601BB
:1011100084819581A681B781AC01BD0141505109FF
:10112000610971094F3F5F4F6F4F7F4310F30CC050
:10113000F601418393838283080D191D2A1D3B1DEF
:10114000048315832683378383E0F60180834481FB
:1011500055816681778177FF1AC0DB01CA018170F2
:101160009927AA27BB277695679557954795842B8E
:10117000952BA62BB72B84839583A683B783828177
:10118000938101969383828302C07B0101C0760123
:10119000C7012496E0E10C949A0BA0E2B0E0E3EDE5
:1011A000F8E00C948C0B6D8F7E8F8F8F98A3298F16
:1011B0003A8F4B8F5C8FBE016F5E7F4FCE014D9695
:1011C0000E94710ABE01675F7F4FCE0149960E945F
:1011D000710AAE014F5F5F4FBE01675F7F4FCE0167
:1011E00041960E9471070E94A709A096E2E00C9424
:1011F000A80BA0E2B0E0EFEFF8E00C948C0B6D8F41
:101200007E8F8F8F98A3298F3A8F4B8F5C8FBE0173
:101210006F5E7F4FCE014D960E94710ABE01675FDF
:101220007F4FCE0149960E94710A8A8591E08927F5
:101230008A87AE014F5F5F4FBE01675F7F4FCE0170
:1012400041960E9471070E94A709A096E2E00C94C3
:10125000A80BA8E1B0E0EFE2F9E00C948C0B6D8BE9
:101260007E8B8F8B988F298B3A8B4B8B5C8BBE013F
:10127000675F7F4FCE0145960E94710ABE016F5F86
:101280007F4FCE0141960E94710A8985823058F0C5
:101290008981823040F0BE016F5F7F4FCE01099699
:1012A0000E94E00A01C08FEF6896E2E00C94A80B60
:1012B000ACE0B0E0EEE5F9E00C948A0B69877A8740
:1012C0008B879C87BE016F5F7F4FCE0109960E947E
:1012D000710A8981823091F1823080F1843041F449
:1012E0008A81882331F100E010E020E030E829C055
:1012F0002B813C8137FD22C02F3131058CF78EE1E7
:1013000090E0821B930B0D811E812F81388504C0D4
:1013100036952795179507958A95D2F78A81882360
:1013200081F030952095109501951F4F2F4F3F4F1D
:1013300008C00FEF1FEF2FEF3FE703C000E010E002
:101340009801B801C9012C96E4E00C94A60B0F9308
:101350001F93CF93DF93DC0114964D915D916D91B6
:101360007C9117971196EC9111978C91823020F413
:1013700060618FEF90E0A6C0843009F49EC0823097
:1013800009F495C0411551056105710509F492C034
:1013900012962D913C91139722388FEF38070CF05D
:1013A00058C0C2E8DFEFC21BD30BCA31D1056CF5C0
:1013B0008A019B010C2E04C0369527951795079539
:1013C0000A94D2F781E090E0A0E0B0E00C2E04C0D7
:1013D000880F991FAA1FBB1F0A94D2F70197A10972
:1013E000B10984239523A623B72341E050E060E0B0
:1013F00070E0892B8A2B8B2B19F440E050E0BA0166
:10140000402B512B622B732B03C040E050E0BA01FC
:10141000DB01CA018F779927AA27BB278034910562
:10142000A105B10539F447FF09C0405C5F4F6F4F1C
:101430007F4F04C0415C5F4F6F4F7F4F81E090E072
:1014400041155105610520E4720748F580E090E000
:1014500026C0203831058CF5DB01CA018F7799272A
:10146000AA27BB2780349105A105B10539F447FFB0
:1014700009C0405C5F4F6F4F7F4F04C0415C5F4FBE
:101480006F4F7F4F77FD04C0C90181589F4F07C040
:101490007695679557954795C90180589F4F97E076
:1014A00076956795579547959A95D1F70BC080E04B
:1014B00090E005C080E090E005C08FEF90E040E054
:1014C00050E0BA01982F9695E0FB97F9362F80FBF4
:1014D00037F9642F752F832FDF91CF911F910F91D3
:1014E0000895CF92DF92EF92DC01FB01CC90119630
:1014F000DC90119712968C9112973FE7E32EE82229
:101500006E2DA60170E0982F991F9927991F1396A9
:101510002C91822F880F892B90E027FB222720F91E
:101520002183009729F5411551056105710511F4D5
:1015300082E027C082E89FEF9383828327E0440FF5
:10154000551F661F771F2A95D1F783E0808309C056
:10155000440F551F661F771F8281938101979383E4
:10156000828341155105610580E4780788F320C026
:101570008F3F910579F4411551056105710519F405
:1015800084E0808319C0E4FE03C081E0808310C042
:1015900010820EC08F5791099383828383E08083EA
:1015A00087E0440F551F661F771F8A95D1F7706437
:1015B0004483558366837783EF90DF90CF900895BF
:1015C000CF93FC01DB019081923008F452C08C91E2
:1015D000823008F44EC0943071F4843039F411969E
:1015E0002C9130E08181281B310948C081818823FA
:1015F00009F43FC03BC0843029F411968C918111CD
:1016000038C034C0923019F48230B9F735C0823016
:1016100069F3C18111968C911197C8131DC0228165
:10162000338112968D919C911397821793070CF436
:1016300013C0281739070CF417C0448155816681FF
:10164000778114968D919D910D90BC91A02D84175A
:101650009507A607B70718F4C11108C00AC04817B4
:1016600059076A077B0740F4C11103C02FEF3FEF12
:1016700005C021E030E002C020E030E0C901CF9198
:10168000089578940E9490040E94AD040E946F0512
:1016900084B1876084B985B1876085B90E940A04E6
:1016A0000E94AE020E949E06813009F428980E9492
:1016B00046060E94A003F6CF991B79E004C0991F4B
:1016C000961708F0961B881F7A95C9F7809508959C
:1016D000AA1BBB1B51E107C0AA1FBB1FA617B70758
:1016E00010F0A61BB70B881F991F5A95A9F7809574
:1016F0009095BC01CD0108952F923F924F925F9239
:101700006F927F928F929F92AF92BF92CF92DF9211
:10171000EF92FF920F931F93CF93DF93CDB7DEB776
:10172000CA1BDB0B0FB6F894DEBF0FBECDBF09940A
:101730002A88398848885F846E847D848C849B8461
:10174000AA84B984C884DF80EE80FD800C811B816F
:10175000AA81B981CE0FD11D0FB6F894DEBF0FBE9E
:10176000CDBFED0108950F931F93CF93DF93823088
:10177000910510F482E090E0E0919B01F0919C01D2
:1017800020E030E0C0E0D0E023C040815181481724
:101790005907A8F04817590761F48281938120976F
:1017A00019F09B838A832EC090939C0180939B01A8
:1017B00029C02115310529F04217530710F0A9015E
:1017C00002C0BE01DF0102811381EF019A01F8011D
:1017D0003097D9F62115310509F1281B390B243032
:1017E000310590F412968D919C91139761157105B6
:1017F00021F0FB019383828304C090939C0180932A
:101800009B01FD01329644C0FD01E20FF31F81935D
:101810009193225031092D933C933AC02091990124
:1018200030919A01232B41F420910301309104015E
:1018300030939A0120939901209101013091020186
:101840002115310541F42DB73EB740910501509166
:101850000601241B350BE0919901F0919A01E217E2
:10186000F307A0F42E1B3F0B2817390778F0AC01C3
:101870004E5F5F4F2417350748F04E0F5F1F5093A0
:101880009A01409399018193919302C0E0E0F0E0C6
:10189000CF01DF91CF911F910F910895EF92FF92A9
:1018A0000F931F93CF93DF93009709F48EC0DC0151
:1018B000129713961C921E921297E0909B01F09043
:1018C0009C01E114F10489F42D913C911197280FAA
:1018D000391F8091990190919A018217930789F598
:1018E000B0939A01A093990170C0E70120E030E025
:1018F00001C0EA01CA17DB0738F44A815B819E0107
:1019000041155105B1F722C0AC0142505109FA010D
:10191000D383C28300811181BC01600F711F6C17DA
:101920007D0761F468817981600F711F6E5F7F4F61
:10193000718360836A817B817383628321153105A2
:1019400029F4B0939C01A0939B013FC0F901B3839C
:10195000A283E90149915991C40FD51FAC17BD0766
:1019600071F4DC019E918E91840F951F02969183F4
:10197000808312968D919C91139793838283A0E02C
:10198000B0E002C0D7017C01F7018281938100970A
:10199000C9F7C701029620813181820F931F2091E0
:1019A000990130919A012817390779F4109729F491
:1019B00010929C0110929B0104C013961C921E92DF
:1019C0001297F0929A01E0929901CDB7DEB7E6E066
:0819D0000C94A40BF894FFCF66
:1019D8000100009D01200000000000000000000040
:00000001FF
